:020000040800F2
:100000007005002001010008CB210008C11600087E
:10001000C921000899080008012500080000000017
:10002000000000000000000000000000EF210008B8
:100030009B08000800000000ED210008F1210008E5
:100040001B0100081B0100081B0100081B01000820
:100050001B0100081B0100081B0100081B01000810
:100060001B0100081B0100081B0100081B01000800
:100070001B0100081B0100081B0100081B010008F0
:100080001B0100081B0100081B0100081B010008E0
:100090001B0100081B0100081B0100081B010008D0
:1000A0001B0100081B0100081B0100081B010008C0
:1000B0001B0100081B0100081B0100081B010008B0
:1000C0001B0100081B0100081B0100081B010008A0
:1000D0001B0100081B0100081B0100081B01000890
:1000E0001B0100081B0100081B010008DFF80CD0F1
:1000F00000F0C0FB00480047FD2C00087005002000
:100100000648804706480047FEE7FEE7FEE7FEE7B1
:10011000FEE7FEE7FEE7FEE7FEE7FEE7492300080D
:10012000ED000008202A04DB203A21FA02F0002129
:10013000704721FA02F3D040C2F1200291400843F7
:100140001946704740EA01039B0703D009E008C93C
:10015000121F08C0042AFAD203E011F8013B00F88C
:10016000013B521EF9D27047D2B201E000F8012BD8
:10017000491EFBD270470022F6E710B513460A4627
:1001800004461946FFF7F0FF204610BDF0B480EAA0
:100190000102D40F4200B2EB410F02D202460846E0
:1001A00011464A0042D0C30DDDB2C1F3C752AD1AA9
:1001B000202D35DAC1F3160141F4000204B1524298
:1001C000C5F1200602FA06F12A411044B3EBD05FD4
:1001D00023D0C4B1012DA0EBC35009DCF0BC4FF01B
:1001E000004202EAC352DBB200F5000000F065BA3B
:1001F000400000F1807000EBC350A0F1807040EA35
:10020000D170490009E0490841EAC071A0EBC35030
:1002100000F50000400800EBC350F0BC00F044BA09
:100220006142012202EB4101001BF6E7F0BC70477E
:1002300081F00041AAE780F00040A7E780EA0102D0
:1002400010B502F00043400022D04A001FD0010E3A
:1002500001EB1261C0F35600C2F3560240F40000F5
:1002600042F40002A0FB022000047F39140400D0F5
:10027000401C50EA124001D44000491EC2B20C0694
:1002800004EBD010401C4008802A02D003E000207C
:1002900010BD20F00100002900DA0020184310BD35
:1002A000420005D0C0F3C7525242914201DC002007
:1002B000704700EBC15070472DE9FE4F804681EA40
:1002C0000300C00F0C46009021F0004123F00045D0
:1002D000B8EB0200A94105D24046214690461C4693
:1002E0000B46024623F00040104347D0270DC7F3CA
:1002F0000A00C3F30A510290401A019040286BDAB9
:10030000C3F3130040F4801B0098924620B10023F1
:10031000D2EB030A63EB0B0B01985946C0F1400284
:10032000504600F0A0F906460D4650465946019A3F
:1003300000F0A8F910EB08006141002487EA11528F
:1003400084EAE7731A4340D0009A62B3019A012A03
:100350004FEA075215DC001B61EB02014FF000422F
:1003600002EA0752CDE90042001C41F580113246F5
:100370002B4600F0DFF903B0BDE8F08F4046214680
:10038000F9E7001B61EB0201001C41F58013001826
:100390005B412018A2F5001747EB030140EAD57036
:1003A000B6196D4111E06D084FEA360645EAC07591
:1003B0004FEA0752001B61EB0201001C41F580115E
:1003C00049084FEA30000019514132462B4603B02C
:1003D000BDE8F04F00F09FB90098012240000023D3
:1003E000D0EB020263EBE073009821464FEAE07421
:1003F000B8EB000061EB0401E9E783F000435BE741
:1004000081F0004158E72DE9FE4F81EA030404F032
:10041000004421F0004100944FF0000B23F0004312
:1004200050EA01045ED052EA03045BD0C3F30A54DD
:10043000C1F30A552C44A4F2F3340194A0FB0254F6
:10044000C1F3130141F48011C3F3130343F4801388
:1004500001FB024400FB034E840A970A44EA8154DC
:1004600047EA8357A4FB076802958D0A05FB0785B9
:100470004FEA932C04FB0C542705029D4FEA0658C3
:1004800047EA1637B5EB08056EEB070C870E920EA0
:1004900047EA811742EA8312A7FB0201B6EB0B0180
:1004A00064EB00042B0D43EA0C335E1844EB1C5044
:1004B000DA465146E7FB0201C5F313044FEA0B335A
:1004C00043EA14534FEA0432019C43EA0603A4F1C1
:1004D0000C040294009CCDE900B400F02BF903B0A9
:1004E000BDE8F08F00200146F9E72DE9F04D81EAE3
:1004F000030404F0004B21F0004514464FF0000ABD
:1005000023F0004150EA050220D054EA01021DD038
:10051000C5F30A570246C5F31303C1F31300C1F331
:100520000A5640F4801543F48013A7EB0608101B0D
:10053000D64608F2FD3873EB050002D308F1010836
:1005400001E092185B41B8F1000F03DA0020014688
:10055000BDE8F08D00204FF48011064684460EE081
:10056000171B73EB050705D3121B63EB050306434B
:100570004CEA010C49084FEA300092185B4150EAFE
:100580000107EDD152EA030012D082EA040083EAA7
:100590000501084305D0101BAB4106D20122002300
:1005A00006E000224FF0004302E06FF0010253101A
:1005B0001AEB06004CEB085110EB0A0041EB0B0163
:1005C000BDE8F04D00F0A7B870B521F0004303433B
:1005D0000CD0C1F30A550024D5EB040564EB0403E9
:1005E000D617AD1AB34102DB0020014670BD2018BA
:1005F00041EB025170BDC10F80EAE0700844CA07A8
:100600009623002100F059B800F0004230F000407D
:100610000AD0C10D01F56071C0F3160042EA015124
:10062000C20840071143704700200146704701F09F
:10063000004330B421F0004150EA010206D00A0D17
:10064000A2F56072C1F31301002A02DC30BC002065
:100650007047440F44EAC104C100E01830BC00EB0D
:10066000C25000F021B8202A04DB203A00FA02F13F
:10067000002070479140C2F1200320FA03F3194390
:1006800090407047202A06DBCB17203A41FA02F04F
:1006900043EAE07306E041FA02F3D040C2F12002DF
:1006A00091400843194670470029A8BF7047401C75
:1006B000490008BF20F00100704710B4B0FA80FC78
:1006C00000FA0CF050EA010404BF10BC704749B1B5
:1006D000CCF1200421FA04F411FA0CF118BF012125
:1006E00021430843A3EB0C01CB1D4FEA00614FEA05
:1006F000102042BF002010BC704700EBC3501044D4
:100700000029A4BF10BC7047401C490008BF20F05E
:10071000010010BC704710B5141E73F1000408DA14
:10072000401C41F1000192185B411A4301D120F0B5
:10073000010010BD2DE9F04D92469B4611B1B1FA72
:1007400081F202E0B0FA80F220329046FFF78BFF90
:1007500004460F4640EA0A0041EA0B0153465A4656
:10076000084313D0114653EA010019D0C8F14002E2
:100770005046FFF7D7FC05460E46504659464246BE
:10078000FFF771FF084305D0012004E020463946F9
:10079000BDE8F08D0020054346EAE0762C43374360
:1007A0000A986305E40AA0EB08000022FD0A44EA67
:1007B00047540A3002D500200146E9E70105101927
:1007C0006941DDE9084500196941BDE8F04DA2E73E
:1007D0002DE9F04D00231A461B1A8A4103DB002045
:1007E0000146BDE8F08DC1F30A52C1F3130141F493
:1007F00080154FF0000BD10702D100186D41521E39
:100800000027044640F2FF11384601EB620A3E46DB
:100810008046024600204FF48011FFF783FCC21986
:100820007141BB1846EB0100B4EB030C75EB000CF7
:1008300004D3E41A65EB000517460E46241908F1A7
:1008400001006D4180463428E3DDF91946EB0600CE
:10085000091BA84103D24FF0FF32134601E00022EA
:1008600013461BEB070046EB0A51BDE8F04DFFF7BE
:1008700052BF0000064C074D06E0E06840F001035F
:1008800094E8070098471034AC42F6D3FFF732FCE7
:10089000A0300008C0300008FEE7704770B504467D
:1008A00000F0F6F80546601C02D0044800780444C5
:1008B00000F0EEF8401BA042FAD370BD5C000020AF
:1008C0002DE9F84FDFF890A100220AF1040B14463D
:1008D00001274FF00F090BF1040E00BF0B6807FA58
:1008E00004F52B40AB4274D1DFF870C14E68A6EB23
:1008F0000C0866452BD00DDC032E34D005DC36B356
:10090000012E19D0022E2FD11BE0112E16D0122E3F
:100910002AD119E0B8F5881F19D006DCB8F5803F58
:1009200015D0B8F5801F1FD111E0B8F5001F0ED00B
:10093000B8F5041F18D10AE0CA6815E0CA68121D8C
:1009400012E0CA6808320FE0CA680C320CE08A680C
:100950002AB1012A4FF0080203D0456104E00422C5
:1009600002E0056100E00022FF2B01D8064601E00D
:1009700000F104064FEA840501D9A5F12005D6F857
:1009800000C009FA05F82CEA080C02FA05F54CEA51
:10099000050CC6F800C04D68ED0057D5304DAE6966
:1009A00046F00106AE61AD6924F0030605F00105CD
:1009B00000952C4D06EB050CDCF80850A6074FEA15
:1009C000167809FA08F6B543274EB04202D1002640
:1009D00010E03BE0254EB04201D101260AE0244E52
:1009E000B04201D1022605E0224EB04201D10326D9
:1009F00000E0042606FA08F62E43CCF808604D689D
:100A0000DAF80060ED03554601D51E4300E09E4331
:100A10002E604D68DBF80060AD035D4601D51E43D6
:100A200000E09E432E604D68DEF80060ED027546E2
:100A300001D51E4300E09E432E604D68AD020E4D71
:100A40002E6801D51E4300E09E432E60641C102CCE
:100A5000FFF444AFBDE8F88F00040140000011101E
:100A6000001002400000014000080140000C01405D
:100A700000100140001401400C040140C2684A40CB
:100A8000C26070470AB1016170470904FBE70000CA
:100A900001488068704700005C00002070B50400C9
:100AA0001BD094F83D00002520B984F83C50204626
:100AB00000F038FA242084F83D002068016821F015
:100AC0000101016000F0A6FB404A6168914201D833
:100AD0003F4900E03F49884201D2012070BD3E49B4
:100AE0002368B0FBF1F159606368934206D94FF473
:100AF000967359434FF47A73B1FBF3F12368491CA1
:100B000019626168914210D84900401EB0FBF1F2B1
:100B1000521CC2F30B02042A01D2042022E0B0FBD3
:100B2000F1F0401CC0F30B001CE0A368CBB301EB59
:100B3000C10202EB0116421EB2FBF6F2521C42F455
:100B40008042120536D06BB301EBC10202EB0111FA
:100B5000401EB0FBF1F0401CC0F30B0040F480409D
:100B600040F400402168C861D4E9070108432168C6
:100B70000860D4E90310084321688860D4E90501BE
:100B800008432168C8602068016841F001010160E4
:100B90002564202084F83D00256384F83E50002021
:100BA00070BD00E008E001EB4106421EB2FBF6F228
:100BB000521CC6E70120D5E701EB4101401EB0FB06
:100BC000F1F0401CC0F30B00CAE70000A086010052
:100BD00080841E0000093D0040420F002DE9F84FBF
:100BE0001F4690468A460446DDF82890FFF750FFDE
:100BF000054694F83D0020287ED11923012278492A
:100C00002046009500F06BFE0028F5D194F83C00DA
:100C1000012871D0012084F83C0020680168C907D0
:100C200003D1016841F0010101602068016821F4ED
:100C300000610160222084F83D00102084F83E000D
:100C400000262664C4F8248067856648E062608DCB
:100C500020852B464A465146204600F046FD28B1E5
:100C6000206C84F83C60042850D073E0208D5E4FE7
:100C700068B1012814D00228206801681ED041F410
:100C80008061016020684169806900909AE0206875
:100C9000416981690091016841F40071016091E04E
:100CA0002068016821F48061016072B620684169A2
:100CB00081690091016841F400710AE041F400612A
:100CC000016072B62068416981690091016821F470
:100CD0008061016062B675E0032850D801280CD00D
:100CE00002284B464FF0000239462046009512D0AC
:100CF00000F0F5FD70BB13E070E02A46494620463F
:100D000000F062FE28B1206C202823D00120BDE82D
:100D1000F88F20684BE000F0E2FDD8B972B61BE016
:100D20002068016821F48061016072B62068016961
:100D3000606A421C62620170208D401E2085608DB9
:100D4000401E60854B46002239462046009500F043
:100D5000C6FD08B10320DAE72068016841F400719C
:100D6000016020680169606A421C62620170208D26
:100D7000401E2085608D401E608562B6C9E72A4608
:100D80004946204600F020FE0028BCD120680169B9
:100D9000606A421C62620170208D401E2085608D59
:100DA000401E608520684169C94349070AD401692A
:100DB000606A421C62620170208D401E2085608D39
:100DC000401E6085208D002886D1202084F83D00BB
:100DD00084F83E6084F83C60002098E7022096E7A3
:100DE000020010000000FFFF040001002DE9F84F91
:100DF0001F4690468A460446DDF82890FFF748FED5
:100E0000064694F83D0020287ED11923012243494B
:100E10002046009600F063FD00287DD194F83C0048
:100E2000012879D0012084F83C0020680168C907B6
:100E300003D1016841F0010101602068016821F4DB
:100E400000610160212084F83D00102084F83E00FC
:100E500000252564C4F8248067853148E062608DF0
:100E6000208533464A465146204600F0ADFC28B165
:100E7000206C84F83C5004284CD00DE02068416977
:100E80008069009030E032464946204600F0CDFDB2
:100E900028B1206C042838D00320BDE8F88F606AA0
:100EA000411C6162216800780861608D401E608588
:100EB000208D401E80B2208521684A69D2435207A6
:100EC0000BD450B1606A421C626200780861608D88
:100ED000401E6085208D401E2085324649462046B2
:100EE00000F0D6FC0028D4D1208D0028CBD154F8B6
:100EF0003D0B016841F400710160202004F81E09D7
:100F0000E57765770020C8E706E02068016841F4CE
:100F1000007101600120C0E70220BEE7020010005E
:100F20000000FFFF10B586B00021009101910291F1
:100F3000039100681349884222D1134CA06940F004
:100F40000800A061A069694600F0080004904FF411
:100F50004070009012200190032003900B48FFF78F
:100F6000AFFC0B48416841F0E06141F00201416093
:100F7000E06940F40010E061E06900F400100490C2
:100F800006B010BD0054004000100240000C0140AB
:100F90000000014002488168027811448160704776
:100FA0005C000020074810B5016841F010010160A5
:100FB000032000F067F8002000F006F800F024F8A5
:100FC000002010BD0020024070B50D4D04464FF4C6
:100FD0007A712878B1FBF0F00A490968B1FBF0F0AA
:100FE00000F0F0FA48B9102C07D200222146501E1A
:100FF00000F028F800206C6070BD012070BD00007A
:101000005C000020680000200C4808B5816941F0B0
:1010100001018161816901F001010091C16941F023
:101020008051C161C06900F080500090044841685F
:1010300021F0E06141F00071416008BD0010024004
:1010400000000140F0B40E4B1B680C46C3F30223B2
:10105000C3F10705042D00D90425191D072901D264
:10106000002300E0DB1E012606FA05F1491E21409F
:1010700099409E40761E16403143F0BC01F0A6B860
:101080000CED00E0064900F0070208684FF6FF0388
:10109000184040EA0220034A1043086070470000ED
:1010A0000CED00E00000FA052DE9F047DFF854816F
:1010B00005460E46D8F8000000F00700B0420CD2FA
:1010C000D8F8001021F007013143C8F80010D8F813
:1010D000000000F00700B0426FD128684A4C810739
:1010E00012D5400703D5606840F4E060606028785E
:1010F000000703D5606840F4605060606068A968CC
:1011000020F0F000084360602878C00744D0686889
:10111000012816D02168022816D0890700294CDA48
:10112000616821F0030101436160FFF7B1FC696868
:10113000074641F2883001290ED00229814618D095
:1011400026E021688903E9E78901E7E7FFF7A0FCCA
:10115000C11B494501D918E081466068C0F3810090
:101160000128F3D118E000BFFFF792FCC11B4945ED
:101170000BD86068C0F381000228F5D10CE000BFF5
:10118000FFF786FCC11B494502D90320BDE8F08763
:10119000606810F00C0FF3D1D8F80010404601F051
:1011A0000701B1420BD9016821F007013143016009
:1011B000006800F00700B04201D00120E6E728787F
:1011C000400705D56068E96820F4E0600843606086
:1011D0002878000706D56068296920F4605040EA45
:1011E000C100606000F036F86168084AC1F303117D
:1011F000515CC840064908600020FFF7E5FE00206A
:10120000C4E700000020024000100240942F0008B4
:10121000680000200448054900684968044AC1F391
:101220000221515CC8407047680000200010024055
:10123000A42F00080448054900684968044AC1F31E
:10124000C221515CC8407047680000200010024075
:10125000A42F000812A185B00FC98DE80F0014A0BB
:10126000144A006804905168134801F00C03042BE1
:1012700010D0082B0ED1C1F38343C9031DF803001E
:101280000AD5516804AAC1F34041515C0A4A50434F
:10129000B0FBF1F005B0704708494843FAE7000099
:1012A00002030405060708090A0B0C0D0E0F1010A7
:1012B000010200000010024000127A0000093D0007
:1012C0002DE9F84F04460078B94DC00748D068684A
:1012D000C0F38100012807D06868C0F381000228AC
:1012E00009D16868C00306D52868800338D56068CE
:1012F00000286FD034E06068B0F5803F0BD010B1AB
:10130000B0F5A02F11D0286820F48030286028681C
:1013100020F4802002E0286840F480302860606873
:1013200088B1FFF7B5FB064609E0286840F4802045
:101330002860F0E7FFF7ACFB801B642875D82868AD
:101340008003F7D50CE0FFF7A3FB064605E000BFDE
:10135000FFF79EFB801B6428F0D828688003F7D431
:101360002078944E80074FF001094FF000083BD5DC
:10137000686810F00C0F07D06868C0F3810002287D
:1013800009D16868C00306D42868800714D520698D
:1013900001281FD110E02069B0B1C6F80090FFF716
:1013A00077FB074605E000BFFFF772FBC01B022872
:1013B000C4D828688007F7D52868616920F0F8004C
:1013C00040EAC10028600FE0C6F80080FFF760FB2C
:1013D000074606E0E9E000BFFFF75AFBC01B022802
:1013E00023D828688007F7D4207800072CD57248C6
:1013F000A169D9B1C0F80090FFF74AFB074604E0A5
:10140000FFF746FBC01B02280FD8686A8007F7D594
:101410006A484FF4FA510068B0FBF1F0009000BF49
:101420000098411E0091FAD20EE080E0C0F80080E2
:10143000FFF72EFB074604E0FFF72AFBC01B02283C
:1014400075D8686A8007F7D42078400760D5E869C6
:101450000027C00008D4E86940F08050E861E869DE
:10146000012700F08050009055480168C90513D449
:101470000168834641F480710160FFF709FB8246F1
:1014800006E000BFFFF704FBA0EB0A0064284ED87B
:10149000DBF80000C005F5D5E06801280AD008B1E6
:1014A000052813D0286A20F001002862286A20F05D
:1014B000040002E0286A40F001002862E06841F27E
:1014C000883B98B1FFF7E4FA82460BE0286A40F0C7
:1014D00004002862EEE700BFFFF7DAFAA0EB0A018A
:1014E00059455AD8286A8007F6D50CE0FFF7D0FA9C
:1014F000824605E0FFF7CCFAA0EB0A0159454CD82B
:10150000286A8007F6D41FB1E86920F08050E861AE
:10151000E06988B36968C1F38101022945D00228D6
:10152000C6F8608004D0FFF7B3FA044638E034E030
:10153000FFF7AEFA074604E0FFF7AAFAC01B02283D
:101540002BD828688001F7D4206AB0F5803F05D1F8
:101550006868A16820F4003008436860D4E9080195
:101560000843696821F4741108436860C6F8609004
:10157000FFF78EFA044606E015E000BFFFF788FA91
:10158000001B022809D828688001F7D50BE000BFAE
:10159000FFF77EFA001B022802D90320BDE8F88F6E
:1015A00028688001F4D40020F8E70120F6E7000065
:1015B00000100240000042428004424268000020C5
:1015C0000070004010B5401EB0F1807F01D30120B3
:1015D00010BD4FF0E02460610F21601700F0F6FDB0
:1015E0000020A06107202061002010BD70B504001C
:1015F00004D094F83900002510B106E0012070BD38
:1016000084F83850204600F023F8242084F839006C
:101610002068C16821F40051C160204600F0B8FE86
:101620002068016921F4904101612068416921F03D
:101630002A0141612068C16841F40051C160E5633D
:10164000202084F8390084F83A00002070BD0000A2
:1016500030B585B00024009401940294039400688E
:101660001449884224D11448C16941F48021C161E0
:10167000C16901F480210491816941F0080181610F
:1016800080690E4D00F0080004904FF480600090D7
:10169000022001900320039069462846FFF710F9C5
:1016A000E814CDE90004694628460294FFF708F9DA
:1016B00005B030BD0048004000100240000C014061
:1016C000FEE701684A69D24352050CD46FF4806288
:1016D0004A6104210164002140F8301F2022427336
:1016E000017301207047002070472DE9F84F044630
:1016F000C06A1E4692460D4621680A6842F480621E
:101700000A60042807D0012805D010F5803F02D0D8
:10171000206B112804D12068016841F480710160B8
:101720004FF001185346002241462046009600F033
:10173000D6F8B8BB206908F10109B0F5804F12D086
:101740000620216800EAD51747F0F000086133460B
:10175000524608F10701204600F0F2F838B1206C3B
:1017600004282FD01EE0E8B240F001001FE02168FD
:10177000E8B20861334652464946204600F0E0F898
:101780000028ECD12068416981690091016841F429
:10179000807101605346002241462046009600F0C9
:1017A0009EF810B10320BDE8F88F47F0F1002168E2
:1017B0000861334652464946204600F0C1F80028E9
:1017C000CDD1F0E70120EEE7F8B50446C06A1E4629
:1017D0000D461746042807D0012805D010F5803F94
:1017E00002D0206B122804D12068016841F4807176
:1017F0000160134600224FF001112046009600F0D0
:101800006EF8A0B92069B0F5804F12D0062021688B
:1018100000EAD51040F0F000086133463A460E4920
:10182000204600F08DF838B1206C042811D0032038
:10183000F8BD05F0FE0000E0E8B221680861064945
:1018400033463A46891F204600F07AF80028EBD14B
:10185000F8BD0120F8BD0000080001007CB5154668
:101860008DF804000A200E46D0240090012301AA1E
:1018700021460648FFF7BAFA642000902B4632460C
:1018800021460248FFF7AAF97CBD00001C01002098
:1018900070B516460D4604461AE02046FFF711FFC4
:1018A00008B1012070BD681C12D025B1FFF7F0F817
:1018B000801BA8420CD954F8400F40F0200044F897
:1018C000100900202060202161732073032070BD67
:1018D00020684069C0434007DFD4002070BD2DE977
:1018E000F0471E4690460D460446C1F30747DDF813
:1018F000209012E0701C10D02EB1FFF7C9F8A0EBB9
:101900000900B04209D9002044F8300F202161734A
:10191000A07320730320BDE8F0872068012F0AD050
:10192000806925EA00000004000C06D00021414532
:10193000E0D00020EFE74069F3E70121F7E700007E
:101940002DE9F0479A4691460D46044600264FF091
:101950002008C1F307472AE020684069C0434005DA
:1019600012D42068016841F40071016021686FF4AD
:101970008060486104202064266384F83D8084F8F8
:101980003C600120BDE8F087B9F1FF3F0FD0B9F10D
:10199000000F05D0FFF77CF8A0EB0A01494506D9F6
:1019A00044F8306F84F80D8026730320EAE720683E
:1019B000012F07D0D0F8180025EA00000004000C21
:1019C000E0D0C9E74069F7E72DE9F04100259046EE
:1019D0000E460446202721E04069C043C0060CD4CF
:1019E00021686FF0100048612564256384F83D701C
:1019F00084F83C500120BDE8F0812EB1FFF748F893
:101A0000A0EB0800B04209D954F8400F40F0200084
:101A100044F80409677025700320ECE720684169E9
:101A2000C9434906D8D40020E5E770B516460D46EF
:101A300004461AE02046FFF744FE08B1012070BDBD
:101A4000681C12D025B1FFF723F8801BA8420CD9DF
:101A500054F8400F40F0200044F8100900202060A6
:101A6000202161732073032070BD20684069C0434A
:101A70000006DFD4002070BD1CB502238DF80400E1
:101A800064208DF805100090D02101AA0148FFF7CD
:101A9000ADF91CBD1C01002070B5044680216B20EF
:101AA000FFF7EAFF6420FEF7F9FE20782179402253
:101AB00000F0070002EA811101436B20FFF7DCFF11
:101AC0006420FEF7EBFEE07800F007011A20FFF734
:101AD000D3FF6078182505EAC0011B20FFF7CCFF73
:101AE000A07805EAC0011C20FFF7C6FF042000F023
:101AF000E5F8A178124831B1012907D0022913D0A5
:101B0000032906D113E04FF0625101E04FF0645118
:101B10008161617871B101290ED002290ED00329AB
:101B200001D10849C16170BD4FF06651F0E74FF037
:101B30006851EDE70449F5E70449F3E70449F1E7A3
:101B40003400002090C1793D2D23FA3B2D237A3CAF
:101B500090C1F93C10B586B0044601223A200DF13F
:101B60000101FFF77BFE9DF80100002834D006221A
:101B700001A93B20FFF772FE9DF805009DF80410B7
:101B8000062200EB012020809DF807009DF806103A
:101B900000EB012060809DF809009DF8081000EB23
:101BA0000120A08003A94320FFF758FE9DF80D00F7
:101BB0009DF80C1000EB0121084801809DF80F10E2
:101BC0009DF80E2001EB022141809DF811109DF837
:101BD000102001EB0221818006B010BD54000020CE
:101BE0007CB504466846FFF7B5FFBDF90000FEF777
:101BF00002FD0B4989690D46FEF720FB2060BDF907
:101C00000200FEF7F8FC2946FEF718FB6060BDF9FC
:101C10000400FEF7F0FC2946FEF710FBA0607CBD37
:101C2000340000203EB50446684600F01DF8084D1B
:101C30000098E968FEF7FCFA206001982969FEF730
:101C4000F7FA606002986969FEF7F2FAA0603EBD9B
:101C50003400002003490A8802804A88428089882B
:101C600081807047540000207CB504466846FFF729
:101C7000F1FFBDF90000FEF7BEFC0B49C9690D4636
:101C8000FEF7DCFA2060BDF90200FEF7B4FC29463D
:101C9000FEF7D4FA6060BDF90400FEF7ACFC2946FB
:101CA000FEF7CCFAA0607CBD34000020014654222F
:101CB0000148FEF747BA00001C0100200146192028
:101CC000FFF7DABE70B586B000241C48009401947A
:101CD00002940394816941F010018161816901F0EE
:101CE00010010491816941F020018161816901F055
:101CF00020010491816941F008018161816901F04D
:101D000008010491816941F00401816180690C4EF0
:101D100000F004004FF4005504900022294630469C
:101D2000FEF7B0FE01200095CDE9010402200390EA
:101D300069463046FEF7C4FD06B070BD0010024093
:101D4000001001402DE9FF4FFF4C97B081469A46A5
:101D500019992069FEF772FA06461899E068FEF7AD
:101D60006DFA0546A068494680F00040FEF766FA25
:101D70002946FEF75DFA3146FEF75AFA4FF0FF3773
:101D80003946FEF78DFA804618992069FEF756FA13
:101D900006461999E068FEF751FA6168054648461B
:101DA000FEF74CFA2946FEF7F1F93146FEF740FA04
:101DB0003946FEF775FA216906464846FEF73EFAAF
:101DC00083461999A068FEF739FA054618996068A4
:101DD000FEF734FA2946FEF72BFA5946FEF7D6F9F4
:101DE0003946FEF75DFAE16805464846FEF726FAF1
:101DF00083461899A068FEF721FA81461999606810
:101E0000FEF71CFA4946FEF7C1F95946FEF710FAEB
:101E10003946FEF745FA07461AF0FF4F07D12498D6
:101E200010F0FF4F03D1259810F0FF4F7ED0259979
:101E30000846FEF703FA249983460846FEF7FEF9A2
:101E4000814651460846FEF7F9F94946FEF79EF9E4
:101E50005946FEF79BF900F037FF81460146504690
:101E6000FEF7ECF91A9049462498FEF7E7F924901A
:101E700049462598FEF7E2F9259001216068FEF7B2
:101E80000FFA14900121A068FEF70AFA12900121BE
:101E9000E068FEF705FA139001212069FEF700FAC9
:101EA000159002216068FEF7FBF908900221A068F6
:101EB000FEF7F6F907900221E068FEF7F1F90990C4
:101EC0000321A068FEF7ECF90C900321E068FEF70F
:101ED000E7F90A9061686068FEF7B0F91090A168B0
:101EE000A068FEF7ABF90190E168E068FEF7A6F99B
:101EF000009021692069FEF7A1F9029024991298B7
:101F0000FEF79CF9834601990898FEF797F98246F7
:101F10001A991398FEF792F9814600990898FEF7EE
:101F20008DF94946FEF732F9514600E0EEE0FEF742
:101F30002DF95946FEF77CF9834625990798FEF757
:101F40007DF90F9000990C98FEF778F90E900199A1
:101F50000C98FEF773F9824624991498FEF76EF9EF
:101F6000039002211098FEF79BF91690A168FEF7E6
:101F700065F981461A991598FEF760F91190029952
:101F80000798FEF75BF91199FEF752F94946FEF7FB
:101F9000FDF80399FEF74CF90799FEF749F9514608
:101FA000FEF7F4F80E99FEF7F1F80F99FEF7EEF848
:101FB000824625990998FEF741F9814600990A98C9
:101FC000FEF73CF9079001990A98FEF737F90A9055
:101FD00024991598FEF732F90C9002990998FEF7AA
:101FE0002DF90E901A991498FEF728F90F9016986B
:101FF000E168FEF723F90F99FEF7C8F80E99FEF78E
:10200000C5F80C99FEF714F90999FEF711F90A9928
:10201000FEF7BCF80799FEF7B9F84946FEF7B6F89F
:10202000029024991398FEF709F90790022100986D
:10203000FEF736F92169FEF701F981461A991298DF
:10204000FEF7FCF8009002210198FEF729F92169BA
:10205000FEF7F4F80099FEF7EBF84946FEF796F81C
:102060000799FEF7E5F881460146FEF7E7F8029981
:1020700009900846FEF7E2F8514608900846FEF738
:10208000DDF8594607900846FEF7D8F80799FEF79D
:102090007DF80899FEF77AF80999FEF777F800F0CD
:1020A00013FE014600905846FEF7C8F805905046CA
:1020B0000099FEF7C3F8824600990298FEF7BEF831
:1020C000834648460099FEF7B9F88146059920688D
:1020D000FEF7B4F84146FEF7AEF880465146206858
:1020E000FEF7ACF83146FEF7A6F8064659462068DA
:1020F000FEF7A4F82946FEF79EF8054649462068F3
:10210000FEF79CF83946FEF796F80746DFF83C9054
:1021100040464946FEF792F86168FEF737F860607E
:1021200049463046FEF78AF8A168FEF72FF8A0600E
:1021300049462846FEF782F8E168FEF727F8E06096
:102140004946384604E0000020000020CDCCCC3DBC
:10215000FEF774F82169FEF719F8206121692069FA
:10216000FEF76CF8E1680746E068FEF767F8A168DB
:102170000646A068FEF762F8616805466068FEF7EB
:102180005DF82946FEF702F83146FDF7FFFF3946B4
:10219000FDF7FCFF00F098FD054601466068FEF77C
:1021A0004DF860602946A068FEF748F8A06029460F
:1021B000E068FEF743F8E06029462069FEF73EF844
:1021C00020611BB0BDE8F08FFEE770470907090EDC
:1021D000002806DA00F00F0000F1E02080F8141D5E
:1021E000704700F1E02080F8001470477047704796
:1021F0002DE9FC473B4C6068401C6060FEF7CAFE5E
:1022000060684FF47A71B0FBF1F201FB120020B963
:102210004FF400513448FEF731FC60686421B0FB94
:10222000F1F201FB1201314DE9BBB0F5FA6F44D96F
:102230002F48FFF7D5FC2846FFF7F4FC2868FEF787
:10224000E3F9DFF8B080DFF8B09042464B46FEF786
:10225000DAF8DFF8A8A000225346FEF746F9FEF7A9
:10226000E6F90746A0606868FEF7CEF942464B469D
:10227000FEF7C9F800225346FEF737F9FEF7D7F903
:102280000646E060A868FEF7BFF942464B46FEF7F7
:10229000BAF800225346FEF728F9FEF7C8F90246BD
:1022A0002061134800E008E0D0E90113CDE90013F4
:1022B000036831463846FFF745FDA868FEF7A4F9E4
:1022C00000220F4BFEF711F905460E462068FEF777
:1022D0009BF92A463346FDF7EFFFFEF7A8F9206089
:1022E000BDE8FC870C000020001001401001002018
:1022F000040100207A008BFCFA210940008066402E
:1023000000408F4010B590B028216846FDF733FF9C
:1023100014210AA8FDF72FFF02200090012004904D
:1023200010200024059007946846FEF7C9FF0F208F
:10233000CDE90A040C940D9400210AA80E94FEF72E
:10234000B3FE10B010BD00000D48016841F001015E
:10235000016041680B4A1140416001680A4A11401E
:102360000160016821F480210160416821F4FE01CF
:1023700041604FF41F0181600449C0030860704749
:10238000001002400000FFF8FFFFF6FE08ED00E03D
:102390002DE9F041044600680169E26821F44051EA
:1023A000114301612169A0680843616908432168FC
:1023B000CA6841F20C639A430243CA6020684169CB
:1023C000A26921F44071114341614C4920686425A0
:1023D000322688423CD1FEF72DFF00EBC00101EB15
:1023E000001061688900B0FBF1F7FEF723FF00EBF6
:1023F000C00101EB00106168B0468900B0FBF1F04C
:10240000B0FBF5F06FF01801484307EB800106EBD5
:102410000110B0FBF5F000F0F006FEF70BFF00EB4B
:10242000C00101EB001061688900B0FBF1F0B0FB66
:10243000F5F006EB0016FEF7FDFE00EBC00101EB28
:10244000001061688900B0FBF1F7FEF7F3FE3BE096
:10245000FEF7E0FE00EBC00101EB001061688900AF
:10246000B0FBF1F7FEF7D6FE00EBC00101EB001068
:102470006168B0468900B0FBF1F0B0FBF5F06FF099
:102480001801484307EB800106EB0110B0FBF5F0A3
:1024900000F0F006FEF7BEFE00EBC00101EB0010FD
:1024A00061688900B0FBF1F0B0FBF5F006EB0016B7
:1024B000FEF7B0FE00EBC00101EB0010616889007F
:1024C000B0FBF1F7FEF7A6FE00EBC00101EB001038
:1024D00061688900B0FBF1F0B0FBF5F06FF0180116
:1024E000484307EB800108EB0110B0FBF5F02168D1
:1024F00000F00F0030448860BDE8F08100380140F2
:10250000FEE700002DE9F0479846DDE908679146AF
:10251000FDF73CFE4FF0FF352946FDF7C1FE0A4CA2
:10252000494620604046FDF731FE2946FDF7B8FEDA
:10253000606031463846FDF729FE2946FDF7B0FEBA
:10254000A060BDE8F0870000340000202DE9F047CE
:102550009846DDE908679146FDF718FE4FF0FF3514
:102560002946FDF79DFE0A4C4946E0604046FDF7CE
:102570000DFE2946FDF794FE206131463846FDF7F1
:1025800005FE2946FDF78CFE6061BDE8F08700007E
:1025900034000020490050EAC12018BF04204A0D31
:1025A00018BF40F0010040F2FF72B2EB515F08BF6C
:1025B00040F00200012808BF052070472DE9F041D6
:1025C0004F1E00EBC7010446D1E9000115461E4627
:1025D00037F006020DD02A463346FDF714FF7F1E62
:1025E00004EBC703D3E90023FDF766FE37F00602CC
:1025F000F1D1022F25D0042F13D0062F18BFBDE82C
:10260000F0812A463346FDF7FEFED4E90A23FDF7A2
:1026100053FE2A463346FDF7F6FED4E90823FDF7BC
:102620004BFE2A463346FDF7EEFED4E90623FDF7BE
:1026300043FE2A463346FDF7E6FED4E90423FDF7C0
:102640003BFE2A463346FDF7DEFED4E90223FDF7C2
:1026500033FE2A463346FDF7D6FED4E90023BDE813
:10266000F041FDF729BE0122FDF7AEBFFDF724BE04
:102670000022134610461146FDF737BF024A0020DC
:102680001107FDF7A1BF000001FDFFFF02E008C830
:10269000121F08C1002AFAD170477047002001E0DC
:1026A00001C1121F002AFBD17047000001490860D8
:1026B000704700006C0000202DE9F04D8D4F21F097
:1026C000004A86B005460C46BA452ADBAAEB07004D
:1026D00028430AD08848824501DC1AD1CDB106B022
:1026E0002846BDE8F04DFFF7BEBF844A844B28461C
:1026F000FDF789FE07460E46824A834B284621464F
:10270000FDF781FE06B03A463346BDE8F04DFDF7D1
:10271000D3BD0120FFF7CAFF06B0BDE8F04DFFF7BB
:10272000A7BF7A48824542DABAF1795F0BDA2846C8
:10273000FFF730FF042808BFFFF7A0FF284606B0C8
:102740002146BDE8F08D2A460B461046FDF75BFE9C
:10275000834602466E480E460B4606217844FFF734
:102760002DFF5A463346FDF74EFE804669488A469D
:102770005A46334604217844FFF720FF5A46334631
:10278000FDF741FE00223B46FDF796FD02460B4653
:1027900040465146FDF7A9FE2A462346FDF733FE83
:1027A00006B02A462346BDE8F04DFDF785BD284614
:1027B00024F0004100223D463B46FDF721FE4FF04C
:1027C000FF32FDF701FF0646024653480F460B460F
:1027D00006217844FFF7F2FE32463B46FDF713FE32
:1027E000CDE900014D4832463B4604217844FFF7CD
:1027F000E5FE32463B46FDF706FE00222B46FDF77E
:102800005BFD834602913046394600F09DFB8046D1
:1028100043480D46504517DCDDE900015A46029B4E
:10282000FDF763FE42462B46FDF7EDFD42462B4683
:10283000FDF742FD0122FDF7C7FE304A304BFDF7A0
:10284000DCFD304A304B4CE04FF0000A52460B465C
:102850004046FDF731FDCDE9031052462B461046A8
:102860001946FDF7D0FD32463B46FDF7C9FDDDE9CF
:102870000332FDF73AFE06460F46DDE900015A46EF
:10288000029BFDF732FE8346009101223046394615
:10289000FDF79AFE194A1A4BFDF7B2FD06460F46A0
:1028A000012240462946FDF78FFE5A46009BFDF760
:1028B000AAFD32463B46FDF7A0FD06460F46012223
:1028C00050462946FDF780FE0E4DDFF858802A4617
:1028D0004346FDF795FD32463B46FDF791FD2A46FE
:1028E0004346FDF78DFD002CD8BF81F0004106B0B6
:1028F000BDE8F08D0000F03F0000F07F075C14336E
:1029000026A6913C182D4454FB21F93F0000E03FDE
:102910005008000066080000DA070000F007000019
:102920003333EF3FFB21E93F2DE9F84F04460D46D5
:1029300021F0004000917349814211DC72498842C4
:1029400001DC06D12CB120462946BDE8F84FFFF73F
:102950008ABE6E48002DCCBF6D496E49BDE8F88F28
:102960006D49814211DD6D498142D8BF4FF0FF367C
:102970006DDD20462946FFF70DFE042808BFFFF74E
:102980007DFE20462946BDE8F88F6549654F25F054
:102990000045814233DD6449814219DD002632461B
:1029A0004FF0804320462946FDF786FC80468A4644
:1029B000012220462946FDF707FE00223B46FDF78F
:1029C0001CFD42465346FDF790FD04460D463EE091
:1029D00001260022BA463B4620462946FDF76CFCFC
:1029E00080460F460022534620462946FDF705FD46
:1029F00042463B46FDF779FD04460D4627E04B492C
:102A000081421BDDDFF828A1022600225346204622
:102A10002946FDF7F8FC00223B46FDF74DFC8046B9
:102A20000F460022534620462946FDF7E6FC424663
:102A30003B46FDF75AFD04460D4608E003262246B4
:102A40002B4600203B49FDF750FD04460D4622462B
:102A50002B4610461946FDF7D6FC8B4682460246A9
:102A60000B46FDF7D0FC07460246334888460B4626
:102A700006217844FFF7A2FD52465B46FDF7C3FCF2
:102A800082462E488B463A46434605217844FFF756
:102A900095FD3A464346FDF7B6FC02460B46002E2E
:102AA000504659460CDAFDF707FC22462B46FDF747
:102AB000AAFC01B022462B46BDE8F04FFDF7A0BCB2
:102AC000FDF7FAFB22462B46FDF79DFC1C4A7A4493
:102AD00002EBC603D3E90023FDF78FFC22462B4609
:102AE000FDF78BFC174A7A4402EBC603D3E90023B7
:102AF000FDF786FC009A002AB8BF81F00041BDE8CE
:102B0000F88F0000000010440000F07F182D44549E
:102B1000FB21F93FFB21F9BF0000DC3F0000203E14
:102B20000000F33F0000F03F0000E63F008003405C
:102B30000000F83F0000F0BFF2050000B005000003
:102B40004E050000160500002DE9F04D9446CCF12D
:102B5000000423F000464CEA0404524F46EAD474C1
:102B60009A46884621F00042BC4206D8454240EAD7
:102B7000050442EAD474BC4204D9BDE8F04D624673
:102B8000FFF774BDAAF14055A5F17F6555EA0C0425
:102B90000BD0022404EAAA74434DDFF810E144EAA2
:102BA000D87452EA000B04D00CE0BDE8F04DFFF7FA
:102BB000BBBE002C14BF012CBDE8F08D022C30D020
:102BC000032C32D056EA0C0B0AD0BE4220D1BA42B6
:102BD00009D126F0804622F080423346114617E0A4
:102BE00000291ADB25E0DFF8C8B0FB44002C04BF45
:102BF000DBE90001BDE8F08D012C02BFDBE900013B
:102C000081F00041BDE8F08D022C0AD0032C0CD0DD
:102C1000BA4212D1B8F1000F0BDA23482549BDE8BA
:102C2000F08D28462449BDE8F08D28467146BDE860
:102C3000F08D1D482149BDE8F08D921B12153C2AEC
:102C4000C4BF19481D490EDCBAF1000FBEBF12F116
:102C50003C0F0020014606DB6246FDF746FC21F0F2
:102C60000041FFF761FE002C08BFBDE8F08D012C8C
:102C700004BF81F00041BDE8F08D114A114B022CD8
:102C800007D0FDF7BAFB2A46BDE8F04D0A4BFDF729
:102C9000B4BBFDF7B2FB2A46BDE8F04D064BFDF78D
:102CA000AFBB00000000F07F182D4454FB2109C089
:102CB000AA040000FB21F9BFFB210940FB21F93FD9
:102CC000075C143326A6A13C10B504464FF0FF3133
:102CD000FDF7E6FA0849A1EB64042146FDF7AEFAD8
:102CE0002146FDF7ABFA4FF07F51FDF7A4FA2146DC
:102CF000BDE81040FDF7A2BADF59375F1FB5FEF7F8
:102D000051F9FFF7FFFAFEF7DDFF77487549002418
:102D100001604FF4E131C0E901140C21C460C0E945
:102D200004418461C461FEF761FC6F486F49543807
:102D300001606F49C0E901144FF48041C0E90341CB
:102D400044618461C4610462FDF7A8FE664854389A
:102D5000FEF7ACFF02208DF80A008DF808408DF8D0
:102D60000B408DF809008DF80C4002A8FEF794FE88
:102D700060496148CDE90001604B614A61496248A0
:102D8000FFF7C0FB61496248CDE90001614B624A2F
:102D900062496348FFF7DAFB624DDFF88C812968EE
:102DA0002868FDF74BFA0121FDF77AFA5F4C0646D9
:102DB00021682068FDF742FA0121FDF771FA3146DA
:102DC000FDF7E4F94FF07E5A5146FDF731FAFDF771
:102DD0001BFC574E8946074631682068FDF72EFADE
:102DE000D8F8001083462868FDF728FA5946FDF701
:102DF0001FFA0121FDF754FAFDF706FC3A464B464F
:102E0000FFF7A2FE4B4A4C4BFDF76FFB00224B4BEA
:102E1000FDF7F9FAFDF70BFC494F3860316830686F
:102E2000FDF70CFA0121FDF73BFA21688146206885
:102E3000FDF704FA0121FDF733FA4946FDF7A6F93B
:102E40005146FDF7F5F9FDF7DFFB81468A46012182
:102E50002068FDF725FA2968FDF7F0F9834601217E
:102E6000D8F80000FDF71CFA3168FDF7E7F959467C
:102E7000FDF7DEF9FDF7C8FB4A465346FFF764FE4F
:102E80002C4A2D4BFDF731FB00222C4BFDF7BBFAF2
:102E9000FDF7CDFB786001212068FDF701FAD8F835
:102EA0000010FDF7CBF9044601212868FDF7F8F979
:102EB0003168FDF7C3F92146FDF768F9FDF7A4FB7A
:102EC000FFF7FAFB1B4A1C4BFDF70FFB00221D4BC3
:102ED000FDF799FAFDF7ABFBB8606420FDF7DEFC67
:102EE0005DE7000000480040C4000020005400409E
:102EF000A08601003333833F85EB813F6F12833A15
:102F00003480B73BC976BE3DA245B63DCDCCCCBEE4
:102F10003333F3BF6666E6BFCDCC0CC0333393C00A
:102F2000CDCC9CC0280000202C00002024000020D4
:102F3000300000207A008BFCFA21094000806640B6
:102F400000000020008066C02DE9F04106460F46D3
:102F5000FDF73EFC041E0D4618BF0120284320F05B
:102F60000040C0F17F6000F1E040C00F0ED0301C87
:102F700018BF0120384320F00040C0F17F6000F10D
:102F8000E040C00F04BF0120FFF790FB2046294618
:102F9000BDE8F08100000000000000000102030411
:102FA00006070809000000000102030400000000F9
:102FB000555555555555C53F7D6FEB0312D6D4BFBA
:102FC0005544880E55C1C93F3B8F68B52882A4BFC0
:102FD00088B20175E0EF493F09F7FD0DE13D023F81
:102FE0004B2D8A1C273A03C0C88A599CE52A004009
:102FF00059018D1B6C06E6BF82922EB1C5B8B33F56
:103000004FBB610567ACDD3F182D4454FB21E93F00
:103010009BF681D20B73EF3F182D4454FB21F93FEF
:10302000E2652F227F2B7A3C075C143326A6813C75
:10303000BDCBF07A8807703C075C143326A6913C20
:10304000C4EB98999999C9BF711623FEC671BCBF8C
:103050006D9A74AFF2B0B3BF9AFDDE522DDEADBFF4
:103060002F6C6A2C44B4A2BF0D5555555555D53F0C
:10307000FF8300922449C23F6E204CC5CD45B73F27
:10308000513DD0A0660DB13FEB0D76244B7BA93F9F
:1030900011DA22E33AAD903F00000000000000008A
:1030A000C030000800000020700000008C260008DE
:1030B0003031000870000020000500009C26000848
:1030C0000000000000000000000000000000000000
:1030D00000000000000000000000000000000000F0
:1030E000CDCCCC3D0000803F00000000000000007F
:1030F00000000000000000000000000000000000D0
:1031000000000000000000000000000000000000BF
:1031100000000000000000000000000001000000AE
:10312000100000000000000000A24A04000000009F
:04000005080000ED02
:00000001FF
